:020000040000FA
:100000000A128A11E62F00308A000408840A820747
:100010000034573461347334683469346E3467346F
:100020002034503472346F346734723461346D3438
:1000300073340034573461347334683469346E3443
:10004000673420344D3461346334683469346E3439
:10005000653400345034723465347334733420346E
:100060006B34653479343534203454346F3400348F
:1000700050346F3477346534723469346E34673495
:1000800020344F344E340034453463346F342034DC
:1000900063346F34743474346F346E3473340034B6
:1000A00041347134753461342034733474346F34B2
:1000B000723465340034423465346434203473342B
:1000C00068346534653474347334003453347434B0
:1000D000613469346E347734613473346834003495
:1000E000443465346434693463346134743465345D
:1000F00073340034573461347334683420346F34CB
:100100006E346C3479340034523469346E34733460
:1001100065342B34443472347934003450346F34C1
:1001200077346534723420344F344E3400344434E0
:100130007234793420346F346E346C347934003452
:1001400057346F346F346C3465346E347334003428
:100150005734683469347434653473340034443447
:10016000613469346C347934003448346534613432
:0A0170007634793400342A34003468
:100AF00001348316031306083F3886000800831666
:100B000003138801091189100A128A1190260A120A
:100B10008A1108000A128A1179250A128A110A120A
:100B20008A117F250A128A110800F00101300A1289
:100B30008A11D3250A128A11A630F400F40B9E2DD7
:100B400000000800A734AD346834A0345E343C346F
:100B5000983453347C348F34723448340134F50083
:100B6000F00174080A128A11D3250A128A11F001C1
:100B7000F00A75080A128A11D3250A128A11080090
:100B80007E088A007F0882000A128A11C0250A1294
:100B90008A118000840A04087D0603190034FF0AC4
:100BA0000319FE0AC42DF3007018D72DDB2D831214
:100BB00003130915DE2D831203130911730888002E
:100BC0008914A630F100F10BE32D0000831203130A
:100BD00089101B30F2009E30F100F10BED2DF20B6D
:100BE000ED2D00000800F500F00174080A128A11CA
:100BF000D3250A128A110E2EF001F00A750884001E
:100C00000A128A1103200A128A110A128A11D325A4
:100C10000A128A110130FF007F08F5077508840069
:100C20000A128A1103200A128A11003A031D192E92
:100C30001A2EFC2D0800F1007108031D202E212E14
:100C4000262E8312031306083F39442E3F308312A9
:100C500003130605F0003F3070060319302E312EC5
:100C6000382E2C080319352E362E382EAC01212EA5
:100C70003F300605F0003F307006031D402E412E28
:100C8000432EAC01AC0A3F300800F9017908803EE0
:100C9000F400FF300A128A11AF250A128A110130BE
:100CA000FF007F08F90710307902031C582E592ED7
:100CB000462EC230F40030300A128A11F3250A128F
:100CC0008A119130F40012300A128A11F3250A12A7
:100CD0008A11FA017A08D03EF400FF300A128A1114
:100CE000AF250A128A110130FF007F08FA07103081
:100CF0007A02031C7C2E7D2E6A2E1A30F8005E309C
:100D0000F7006E30F600F60B832EF70B832EF80BF0
:100D1000832E00000A128A1195250A128A110800F2
:100D2000C330F500CD30F400F40B942EF50B942E67
:100D3000F00133300A128A11D3250A128A111B30AE
:100D4000F5009E30F400F40BA32EF50BA32E00004B
:100D5000F00133300A128A11D3250A128A11A63003
:100D6000F400F40BB12E0000F00133300A128A11A6
:100D7000D3250A128A11BC2EBD2E0000F00130309E
:100D80000A128A11D3250A128A11A630F400F40B34
:100D9000C72E0000F00101300A128A11D3250A1271
:100DA0008A11A630F400F40BD32E0000F0010C30B1
:100DB0000A128A11D3250A128A11A630F400F40B04
:100DC000DF2E000008000A128A118A250A128A11F1
:100DD00001300A128A111B260A128A118130F4008E
:100DE00022300A128A11F3250A128A11C430F40043
:100DF00086300A128A11F3250A128A119130F40002
:100E000012300A128A11F3250A128A1101300A12CD
:100E10008A111B260A128A112F3A031D102F112F37
:100E2000EE2E0A128A1195250A128A110A128A11C7
:100E300045260A128A1101300A128A111B260A124B
:100E40008A11FB002A2F7B080A128A1136270A1200
:100E50008A112F2F7D08013A0319232F2F2F831278
:100E60000313AD011B2F0A128A110028F60010305F
:100E7000831203132D06031D3E2F3F2F452F0A1209
:100E80008A1195250A128A11FC0137307606031D56
:100E90004A2F4B2F5B2F0130FF007F08FC070A12FF
:100EA0008A1195250A128A110C307C06031D592FD0
:100EB0005A2F5B2FFC018030F40001300A128A1196
:100EC000F3250A128A11C030F400B3300A128A11D5
:100ED000F3250A128A110A307C020318702F712F31
:100EE000962FC230F4007C08203E84008313000853
:100EF0000A128A11F3250A128A119230F4007C0832
:100F0000213E8400831300080A128A11F3250A1275
:100F10008A11D230F4007C08223E8400831300083A
:100F20000A128A11F3250A128A11E52F0A307C066B
:100F3000031D9B2F9C2FBF2FC230F4007C08203E46
:100F40008400831300080A128A11F3250A128A11F9
:100F50009230F4007C08213E8400831300080A12BA
:100F60008A11F3250A128A11D230F4008312031376
:100F700020080A128A11F3250A128A11E52F0B3074
:100F80007C06031DC42FC52FE52FC230F4007C085A
:100F9000203E8400831300080A128A11F3250A12E6
:100FA0008A119230F4008312031320080A128A1166
:100FB000F3250A128A11D230F40083120313210898
:100FC0000A128A11F3250A128A11080083132D30A0
:100FD000FD000530FE00A230FF00203084000A1220
:100FE0008A11C4250A128A110A128A1178250A1256
:100FF0008A11FD00AD01FC0183010A128A11E32E62
:02400E00FB3F76
:00000001FF
