:020000040000FA
:100000000A128A11F62F00308A000408840A820737
:100010000034573461347334683469346E3467346F
:1000200020344D3461346334683469346E3465345B
:100030000034573461347334683469346E3467344F
:100040002034703472346F346734723461346D34F8
:1000500000345034723465347334733420346B3468
:10006000653479343534203454346F3400345034AA
:100070006F3477346534723469346E3467342034C5
:100080004F344E34003450346F3477346534723426
:0800900020344F344E340034DB
:100CDA0001348316031306083F388600080083167A
:100CEA0003138801091189100A128A11A3270A120B
:100CFA008A1108000A128A116E260A128A110A1229
:100D0A008A1174260A128A110800F00101300A12A7
:100D1A008A11A8260A128A11A630F400F40B932E1F
:100D2A0000000800F500F00174080A128A11A826CA
:100D3A000A128A11F001F00A75080A128A11A82605
:100D4A000A128A110800F3007018AC2EB02E831212
:100D5A0003130915B32E83120313091173088800AC
:100D6A008914A630F100F10BB82E00008312031388
:100D7A0089101B30F2009E30F100F10BC22EF20BEB
:100D8A00C22E00000800F500F00174080A128A1148
:100D9A00A8260A128A11E32EF001F00A75088400C7
:100DAA000A128A1103200A128A110A128A11A82623
:100DBA000A128A110130FF007F08F50775088400BE
:100DCA000A128A1103200A128A11003A031DEE2E12
:100DDA00EF2ED12E0800F1007108031DF52EF62E14
:100DEA00FB2E8312031306083F39192F3F30831253
:100DFA0003130605F0003F3070060319052F062F6E
:100E0A000D2F7B0803190A2F0B2F0D2FFB01F62E2E
:100E1A003F300605F0003F307006031D152F162FD0
:100E2A00182FFB01FB0A3F3008000A128A117F269D
:100E3A000A128A118130F40021300A128A11C82656
:100E4A000A128A11C430F4003B300A128A11C826E9
:100E5A000A128A119130F40001300A128A11C82646
:100E6A000A128A1101300A128A11F0260A128A110C
:100E7A002F3A031D412F422F1F2F0A128A118A2649
:100E8A000A128A110A128A1158270A128A119130F3
:100E9A00F40011300A128A11C8260A128A114C2F3C
:100EAA000A128A110028F9017908803EF400FF30FD
:100EBA000A128A1197260A128A110130FF007F0846
:100ECA00F90710307902031C6B2F6C2F592FC2308F
:100EDA00F4002F300A128A11C8260A128A11913098
:100EEA00F40001300A128A11C8260A128A11FA017C
:100EFA007A08D03EF400FF300A128A1197260A12A5
:100F0A008A110130FF007F08FA0710307A02031CA9
:100F1A008F2F902F7D2F1A30F8005E30F7006E3039
:100F2A00F600F60B962FF70B962FF80B962F00006C
:100F3A000A128A118A260A128A110800C330F50099
:100F4A00CD30F400F40BA72FF50BA72FF0013330A7
:100F5A000A128A11A8260A128A111B30F5009E303D
:100F6A00F400F40BB62FF50BB62F0000F001333066
:100F7A000A128A11A8260A128A11A630F400F40B62
:100F8A00C42F0000F00133300A128A11A8260A126F
:100F9A008A11CF2FD02F0000F00130300A128A11A7
:100FAA00A8260A128A11A630F400F40BDA2F0000E0
:100FBA00F00101300A128A11A8260A128A11A630F3
:100FCA00F400F40BE62F0000F0010C300A128A112B
:100FDA00A8260A128A11A630F400F40BF22F000098
:100FEA0008000A128A116D260A128A11FB0083016F
:060FFA000A128A111A2FF1
:02400E00FB3F76
:00000001FF
